:100000000C9434000C945F000C9451000C9451003B
:100010000C9451000C9451000C9451000C946E00FF
:100020000C9451000C9451000C9451000C9451000C
:100030000C9451000C9451000C9451000C945100FC
:100040000C9451000C9451000C9451000C945100EC
:100050000C9451000C9451000C9451000C945100DC
:100060000C9451000C94510011241FBECFEFD8E026
:10007000DEBFCDBF11E0A0E0B1E0EEE4FFE002C0E2
:1000800005900D92A238B107D9F721E0A2E8B1E0BE
:1000900001C01D92A838B207E1F70E9458010C94E4
:1000A000A5070C940000FC019191992339F08091EF
:1000B000C00085FFFCCF9093C600F6CF08951F9235
:1000C0000F920FB60F9211248F9381E080938501D8
:1000D0008F910F900FBE0F901F9018951F920F9247
:1000E0000FB60F9211242F933F934F935F936F930B
:1000F0007F938F939F93AF93BF93EF93FF938BB1B6
:1001000087708BB985B1887F85B985B1886385B9DA
:1001100088B1866388B980910001882309F43AC0C8
:10012000E0918401E83070F4F0E0E756FF4F0C9462
:100130008702A100E600E800EA00EC00EE00F00013
:10014000F2005B9AE091840180910101909102019B
:10015000E80FF92FF11D408130E020E050E066E02B
:1001600070E0FB01E21BF30BDA0102C0B595A79525
:10017000EA95E2F7A0FF09C0233009F440C0A0F5DA
:100180002130C9F12230C9F12B982F5F3F4F273022
:10019000310539F7809184018F5F8830B0F5809305
:1001A000840180918201909183010196883EB3E0A1
:1001B0009B0770F590938301809382018091870162
:1001C00081112BC081E08093000138C05C9ABACFC6
:1001D0005D9AB8CF5E9AB6CF5F9AB4CF289AB2CF65
:1001E000299AB0CF2A9AAECF253069F050F0263048
:1001F00059F64598CACF2C98C8CF2D98C6CF4198AC
:10020000C4CF4298C2CF4498C0CF10928401C9CFC6
:100210001092830110928201D1CF209187018091A9
:10022000820190918301213031F564EF71E00E94E9
:1002300073028A3F910538F5209300018091870170
:10024000813069F58091820190918301823391051B
:10025000E8F4439AFF91EF91BF91AF919F918F91F5
:100260007F916F915F914F913F912F910F900FBEB2
:100270000F901F9018956AEF70E00E9473028D37FF
:10028000910508F49FCF10920001D8CF84369105D4
:1002900010F44398DFCF86399105D8F7DACF8091F3
:1002A00087018230B1F7809186018111F2CFD1CFE1
:1002B000CF93DF93CDB7DEB7CF55D1090FB6F89402
:1002C000DEBF0FBECDBF8AEF8AB95A9A8FE384B9D9
:1002D0008EE387B980916900826080936900E89A13
:1002E00080E480937C0087E880937A0082E08093AA
:1002F000B00085E08093B10089EF8093B3008091D6
:1003000070008260809370001092C50087E6809331
:10031000C40088E08093C10086E08093C200789496
:100320008FE191E00E945300F12CE12C85E0282E12
:10033000312C97E0492E91E0592E2FE0622E21E0DA
:10034000722E37E1832E31E0932E8E010F5A1F4F0C
:1003500044E6C42E41E0D42ECE0101965C0125E096
:1003600030E090E080E040917A00406440937A0071
:1003700040917A0046FDFCCF409178005091790081
:10038000840F951FEFE1F3E03197F1F700C0000013
:100390002150310941F7B1010E94730290E080E0E1
:1003A0000E94A70320E030E040E253E40E94590499
:1003B00020E030EC4FE754E40E94FF0220E030E000
:1003C00040EA51E40E948E0260930301709304019D
:1003D00080930501909306016091030170910401DF
:1003E000809105019091060120E030E040EF52E459
:1003F0000E94FA0218160CF456C0109287019092CF
:10040000020180920101109286018091850188236A
:1004100049F01092850180918701823019F491E0B2
:1004200090938601EFEFEE1AFE0AF4E6EF16F10460
:1004300098F1809187016CE271E0882341F080910E
:10044000870163E371E0813011F06FE371E0C8016F
:100450000E94C60487E491E00E945300609103016A
:100460007091040180910501909106011F930F93F3
:100470000E9471037F936F93DF92CF92BF92AF92EE
:100480000E94CD04C5010E9453000FB6F894DEBF50
:100490000FBECDBFF12CE12CEFE3FCE93197F1F772
:1004A00000C000005CCF6091030170910401809155
:1004B00005019091060120E030E046E153E40E94FE
:1004C000FA02181644F0F1E0F093870170920201ED
:1004D0006092010198CF82E08093870150920201DF
:1004E0004092010192CFAA1BBB1B51E107C0AA1F7A
:1004F000BB1FA617B70710F0A61BB70B881F991FC5
:100500005A95A9F780959095BC01CD010895EE0FFD
:10051000FF1F0590F491E02D09945058BB27AA279E
:100520000E94A5020C941F040E94110438F00E943E
:10053000180420F039F49F3F19F426F40C940E04AB
:100540000EF4E095E7FB0C940804E92F0E943004B8
:1005500058F3BA17620773078407950720F079F4F8
:10056000A6F50C9452040EF4E0950B2EBA2FA02D94
:100570000B01B90190010C01CA01A0011124FF2750
:10058000591B99F0593F50F4503E68F11A16F0404B
:10059000A22F232F342F4427585FF3CF469537954A
:1005A0002795A795F0405395C9F77EF41F16BA0B0F
:1005B000620B730B840BBAF09150A1F0FF0FBB1FBD
:1005C000661F771F881FC2F70EC0BA0F621F731F06
:1005D000841F48F4879577956795B795F7959E3F63
:1005E00008F0B0CF9395880F08F09927EE0F9795F4
:1005F000879508950E94E40308F481E008950E941D
:1006000013030C941F040E94180458F00E94110454
:1006100040F029F45F3F29F00C94080451110C9428
:1006200053040C940E040E94300468F39923B1F330
:10063000552391F3951B550BBB27AA276217730708
:10064000840738F09F5F5F4F220F331F441FAA1F9C
:10065000A9F335D00E2E3AF0E0E832D09150504058
:10066000E695001CCAF72BD0FE2F29D0660F771F06
:10067000881FBB1F261737074807AB07B0E809F0EC
:10068000BB0B802DBF01FF2793585F4F3AF09E3F71
:10069000510578F00C9408040C9453045F3FE4F384
:1006A000983ED4F3869577956795B795F7959F5FB4
:1006B000C9F7880F911D9695879597F90895E1E000
:1006C000660F771F881FBB1F621773078407BA075F
:1006D00020F0621B730B840BBA0BEE1F88F7E095BA
:1006E00008950E9478036894B1110C9453040895FE
:1006F0000E94380488F09F5798F0B92F9927B75176
:10070000B0F0E1F0660F771F881F991F1AF0BA95B5
:10071000C9F714C0B13091F00E945204B1E00895BD
:100720000C945204672F782F8827B85F39F0B93FAF
:10073000CCF3869577956795B395D9F73EF4909568
:100740008095709561957F4F8F4F9F4F0895E894E6
:1007500009C097FB3EF490958095709561957F4F09
:100760008F4F9F4F9923A9F0F92F96E9BB279395B7
:10077000F695879577956795B795F111F8CFFAF4C7
:10078000BB0F11F460FF1BC06F5F7F4F8F4F9F4FF8
:1007900016C0882311F096E911C0772321F09EE856
:1007A000872F762F05C0662371F096E8862F70E0BC
:1007B00060E02AF09A95660F771F881FDAF7880F96
:1007C0009695879597F90895990F0008550FAA0BEC
:1007D000E0E8FEEF16161706E807F907C0F0121654
:1007E0001306E407F50798F0621B730B840B950B57
:1007F00039F40A2661F0232B242B252B21F40895AC
:100800000A2609F4A140A6958FEF811D811D089548
:1008100097F99F6780E870E060E008959FEF80ECB3
:10082000089500240A941616170618060906089556
:1008300000240A9412161306140605060895092EBC
:100840000394000C11F4882352F0BB0F40F4BF2B2B
:1008500011F460FF04C06F5F7F4F8F4F9F4F08956B
:1008600057FD9058440F551F59F05F3F71F0479561
:10087000880F97FB991F61F09F3F79F08795089546
:10088000121613061406551FF2CF4695F1DF08C065
:10089000161617061806991FF1CF86957105610582
:1008A00008940895E894BB2766277727CB0197F92A
:1008B00008950E946C040C941F040E94110438F0E7
:1008C0000E94180420F0952311F00C9408040C9455
:1008D0000E0411240C9453040E94300470F3959F6D
:1008E000C1F3950F50E0551F629FF001729FBB2727
:1008F000F00DB11D639FAA27F00DB11DAA1F649FC3
:100900006627B00DA11D661F829F2227B00DA11D75
:10091000621F739FB00DA11D621F839FA00D611DFB
:10092000221F749F3327A00D611D231F849F600D1C
:10093000211D822F762F6A2F11249F5750409AF045
:10094000F1F088234AF0EE0FFF1FBB1F661F771FD1
:10095000881F91505040A9F79E3F510580F00C949C
:1009600008040C9453045F3FE4F3983ED4F3869557
:1009700077956795B795F795E7959F5FC1F7FE2B3C
:10098000880F911D9695879597F90895FB01DC01D5
:1009900001900D920020E1F70895AEE0B0E0E3EDA4
:1009A000F4E00C947C070D891E8986E08C831A8301
:1009B00009838FEF9FE79E838D83AE01475E5F4F74
:1009C0006F89788DCE0101960E94F0042F813885C1
:1009D000020F131FF80110822E96E4E00C94980782
:1009E000ABE0B0E0E6EFF4E00C946E077C013B0175
:1009F0008A01FC0117821682838181FFC8C1CE0162
:100A000001965C01F7019381F30193FD859193FFBA
:100A100081913F01882309F453C1853239F493FD54
:100A2000859193FF81913F01853229F4B70190E0D0
:100A30000E94E006E7CF912C212C312CFFE1F31529
:100A400038F08B3211F190F4803209F1833229F1C0
:100A500037FC3CC020ED280F2A3050F536FE20C070
:100A60008AE0989E200D1124922E06C08D3291F0BE
:100A7000803371F7689430F8F30193FD859193FF0B
:100A800081913F018111DACF21C0689431F86894D7
:100A900032F8F2CF689433F8EFCF689434F8ECCFA3
:100AA000EAE02E9E200D1124222E689435F8E4CF22
:100AB0008E3229F436FC04C1689436F8DDCF8C36CA
:100AC00019F4689437F8D8CF8836B1F2982F9F7D03
:100AD00095549330E0F08336A1F18337C1F183352B
:100AE00009F063C02801F2E04F0E511CF801C080EC
:100AF000D180692D70E036FC02C06FEF7FEFC60138
:100B00000E94CA064C01689437F882010AC00C5F43
:100B10001F4FFFE3F98388248394912C6501E894A7
:100B200037F833FE2DC0522C8114910471F55520F5
:100B300009F468CFB70180E290E00E94E0065A9481
:100B4000F6CFF801808189830E5F1F4FE4CF280123
:100B5000F2E04F0E511CF801C080D180692D70E089
:100B600036FC02C06FEF7FEFC6010E94D5064C0134
:100B70008201D5CFB70180E290E00E94E0062A947E
:100B80002814190409F0B0F7CECFF60137FC85918F
:100B900037FE81916F01B70190E00E94E00651108D
:100BA0005A94F1E08F1A9108BFCF843619F0893634
:100BB00009F077C0F80137FE6BC0608171818281D6
:100BC00093810C5F1F4FF32DFF763F2E97FF09C0D7
:100BD00090958095709561957F4F8F4F9F4F68944A
:100BE00037F82AE030E0A5010E941007C82ECA1885
:100BF0008C2C432C36FE0CC0E89440F8C91440F409
:100C000034FE05C032FC03C0F32DFE7E4F2E892C2E
:100C100044FE95C0FE01EC0DF11D8081803309F08A
:100C200087C0242D297E422E842D8870582E43FCA7
:100C300095C040FE8FC09C2C821418F42C0C922C72
:100C4000981844FE91C0B70180E390E00E94E0064E
:100C500042FE09C088E790E041FE02C088E590E0CE
:100C6000B7010E94E006C91408F48AC0CA94D12CC6
:100C70009FEFC91AD90ACA0CDB1CF60182916F01D9
:100C8000B70190E00E94E006AC14BD04B1F74FCF6D
:100C900060817181072E000C880B990B0E5F1F4F2E
:100CA00092CFD32CE894D4F82AE030E0853739F19C
:100CB000232D297FD22E8F3601F148F48835A9F0F3
:100CC000F701868197812B96E2E10C948A078037A1
:100CD00049F08837A9F7D4FE02C06894D2F820E121
:100CE00030E00DC06894D4F8F6CF34FE03C0822FF4
:100CF0008660D82E20E132E002C028E030E0F80122
:100D0000D7FE0FC060817181828193810C5F1F4F7C
:100D1000A5010E941007C82ECA183D2CE89437F888
:100D200067CF6081718190E080E00E5F1F4FF0CF50
:100D300042FC02C0839478CF8394839475CF842D32
:100D4000867809F471CFF6CFB70180E290E00E9477
:100D5000E00683948214C0F3512C73CF522C5818A0
:100D6000821408F46ECFF8CF842D867809F47BCFF7
:100D70008BE241FE80E247FC8DE2B70190E071CF4B
:100D8000B70180E390E00E94E0069A946CCF8FEF69
:100D90009FEF99CFFC010590615070400110D8F78A
:100DA000809590958E0F9F1F0895FC0161507040B3
:100DB00001900110D8F7809590958E0F9F1F089590
:100DC0000F931F93CF93DF93182F092FEB018B8184
:100DD00081FD09C01FEF0FEF812F902FDF91CF9181
:100DE0001F910F91089582FF14C02E813F818C8145
:100DF0009D81281739073CF4E881F981CF010196DC
:100E00009983888310838E819F8101969F838E832F
:100E1000E3CFE885F985812F0995892BA1F3DACFF6
:100E2000FA01AA27283051F1203181F1E8946F931B
:100E30006E7F6E5F7F4F8F4F9F4FAF4FB1E03ED0C1
:100E4000B4E03CD0670F781F891F9A1FA11D680F5F
:100E5000791F8A1F911DA11D6A0F711D811D911D92
:100E6000A11D20D009F468943F912AE0269F112407
:100E70003019305D3193DEF6CF010895462F47706B
:100E8000405D4193B3E00FD0C9F7F6CF462F4F70C6
:100E9000405D4A3318F0495D31FD4052419302D024
:100EA000A9F7EACFB4E0A6959795879577956795CA
:100EB000BA95C9F700976105710508959B01AC01CA
:100EC0000A2E06945795479537952795BA95C9F7F1
:100ED000620F731F841F951FA01D08952F923F92CC
:100EE0004F925F926F927F928F929F92AF92BF923A
:100EF000CF92DF92EF92FF920F931F93CF93DF93E6
:100F0000CDB7DEB7CA1BDB0B0FB6F894DEBF0FBE42
:100F1000CDBF09942A88398848885F846E847D848F
:100F20008C849B84AA84B984C884DF80EE80FD8091
:100F30000C811B81AA81B981CE0FD11D0FB6F89407
:0E0F4000DEBF0FBECDBFED010895F894FFCFC8
:100F4E000117010000A04141221408081422410C8F
:100F5E000C0C0C0C000C0C0000406030190F0653EA
:100F6E00495354454D41204F4B0D0A004E4F524DA3
:100F7E00414C00414456455254454E43494100436D
:100F8E0052495449434F004D616E64616E646F2047
:100F9E006461746F732061206C61206E7562652EC2
:100FAE002E2E20007B2274656D70223A25642C2033
:100FBE002265737461646F223A222573227D0D0AB5
:020FCE00000021
:00000001FF
